:10000000FCEF11F00000000000EF00F00000000025
:0A0010000000000000000000F3D71C
:0E001C00010107B102D08B9C01D08B8C120029
:0E002A00010107B102D08B9E01D08B8E120017
:0E003800010107B102D08B9601D08B86120019
:0E004600010107B102D0899401D08984120013
:0E005400010107B102D08B9801D08B881200F9
:0E006200010107B102D08B9801D08B881200EB
:0E007000010107B102D08B9601D08B861200E1
:0E007E00010107B102D08B9A01D08B8A1200CB
:0E008C00010107B102D08A9201D08A821200CF
:0E009A00010107B102D08B9401D08B841200BB
:0E00A800010107B102D08D9601D08D861200A5
:0E00B600010107B102D08F9401D08F84120097
:0E00C400010107B102D08A9401D08A84120093
:0E00D200010107B102D08F9201D08F8212007F
:0E00E000010107B102D08B9801D08B8812006D
:0E00EE00010107B102D08B9601D08B86120063
:0E00FC00010107B102D08B9601D08B86120055
:0E010A00010107B102D08D9401D08D84120046
:0E011800010107B102D08B9801D08B88120034
:0E012600010107B102D08F9001D08F8012002E
:0E013400010107B102D08B9A01D08B8A120014
:0E014200010107B102D08D9201D08D82120012
:0E015000010107B102D08B9801D08B881200FC
:0E015E00010107B102D08B9601D08B861200F2
:0E016C00010107B102D08B9A01D08B8A1200DC
:0E017A00010107B102D08A9001D08A801200E4
:0E018800010107B102D08B9201D08B821200D0
:100196000F0121B302D00000FBD707C11CFF1200DC
:0E01A600ACB202D00000FCD707C1ADFF1200C2
:0E01B400010107B102D0899001D089801200AC
:0E01C200010107B102D08D9001D08D80120096
:0E01D000010107B102D08B9001D08B8012008C
:0E01DE00010107B102D08B9601D08B86120072
:0E01EC00010107B102D08B9C01D08B8C120058
:0E01FA00010107B102D0899201D08982120062
:0E020800010107B102D08B9801D08B88120043
:0E021600010107B102D0899801D08988120039
:0E022400010107B102D08B9E01D08B8E12001B
:1002320068B409D01F0E6614016E0150000A03E172
:0A024200010E006E01D0006A1200E8
:10024C00C7B409D01F0EC514016E0150000A03E19A
:0A025C00010E006E01D0006A1200CE
:10026600F250026EF29E0500FF6A0150FE6E0050CB
:08027600FD6E02BEF28E1200C3
:10027E000B820BAE49EF01F003680268016800685B
:08028E000A360232FF0E1200D5
:0E029600026A016A006A086A036A000E12001A
:0802A4000AAE029E000E1200DA
:1002AC000B840BAE61EF01F0010E036E026A016A62
:0A02BC00006A0A360232FF0E12003B
:0A02C600000E81B2010E006E12005E
:0A02D000000E82BE010E006E120047
:0A02DA00000E82BA010E006E120041
:0A02E400000E82B4010E006E12003D
:0A02EE00000E80B4010E006E120035
:0A02F800000E84B6010E006E120025
:0A030200000E81B0010E006E120023
:0A030C00000E82BC010E006E12000C
:0A031600000E82B6010E006E120008
:0A032000000E82B8010E006E1200FC
:0A032A00000E82BC010E006E1200EE
:0A033400000E82B6010E006E1200EA
:10033E009E9600C1C9FF59C001F15AC002F15BC0BF
:10034E0003F15CC004F1C7A421D059505A105B10C0
:10035E005C101BE0010101510211031104110EE1A9
:10036E00B5C0E1FFB6C0E2FF040EE66EB3C000F00A
:10037E00B4C001F071DF010E006E3AD0010E010122
:10038E00015F000E025B035B045BDDD759C001F118
:10039E005AC002F15BC003F15CC004F19EB621D0DD
:1003AE0059505A105B105C101BE0010101510211F3
:1003BE00031104110EE1B5C0E1FFB6C0E2FF040E59
:1003CE00E66EB3C000F0B4C001F046DF010E006E61
:1003DE000FD0010E0101015F000E025B035B045B97
:1003EE00DDD7C5BC02D0006A03D0C584020E006EF4
:0203FE001200EB
:0A040000000E82BE010E006E120015
:0A040A00000E82B8010E006E120011
:0A041400000E84B2010E006E12000B
:0A041E00000E82B6010E006E1200FF
:0A042800000E80B2010E006E1200FB
:0A043200000E80B8010E006E1200EB
:10043C000CB060EF02F00CA206EF03F00E6A000E97
:10044C00026477EF02F0F00E0214D8A442EF02F02F
:10045C00023A01380F0B02260138F00B016E0038FE
:10046C000F0B01260038F00B006E08380F0B00261E
:10047C000838F00B086E0E84D89002BE5BEF02F0C9
:10048C0008360036013602360E2A02BE5BEF02F049
:10049C0008360036013602360E2A02BE5BEF02F039
:1004AC0008360036013602360E2A0E500364FCEF75
:1004BC0002F0035E0BBC08AE01EF03F0D880800E97
:1004CC0008640030000E002201220222D8A001EFA5
:1004DC0003F0023201320032034A06EF03F001EF5F
:1004EC0003F001C002F000C001F008C000F0086A7F
:1004FC00000E0E860264AEEF02F0F00E0214D8A4C9
:10050C0096EF02F0023A01380F0B02260138F00B7D
:10051C00016E00380F0B01260038F00B006E0E84B4
:10052C00D89002BE5BEF02F00036013602360E2A7E
:10053C0002BE5BEF02F00036013602360E2A02BE16
:10054C005BEF02F00036013602360E2A5BEF02F04A
:10055C0001C002F000C001F0006A000E0E960E8879
:10056C000264DBEF02F0F00E0214D8A4C6EF02F026
:10057C00023A01380F0B02260138F00B016E0E8483
:10058C00D89002BE5BEF02F0013602360E2A02BE94
:10059C005BEF02F0013602360E2A02BE5BEF02F070
:1005AC00013602360E2A5BEF02F001C002F0016A3E
:1005BC00000E0E8602640BEF03F0F00E0214D8A4AA
:1005CC00EAEF02F0023A0E84D89002BE5BEF02F022
:1005DC0002360E2A02BE5BEF02F002360E2A02BE73
:1005EC005BEF02F002360E2A5BEF02F0010E0C6E8E
:1005FC0057DE0EEF03F0020E0C6E4EDE0EEF03F024
:10060C00040E0C6E36DE0EEF03F0080E0C6E3DDEA3
:02061C001200CA
:10061E00A19A00C16AFF8DC001F18EC002F18FC098
:10062E0003F190C004F168A422D000018D518E1107
:10063E008F1190111BE001010151021103110411E0
:10064E000EE1CEC0E1FFCFC0E2FF040EE66ECCC0DD
:10065E0000F0CDC001F000DE010E006E3BD0010EA9
:10066E000101015F000E025B035B045BDCD78DC0F2
:10067E0001F18EC002F18FC003F190C004F1A1BA56
:10068E0022D000018D518E118F1190111BE00101AE
:10069E0001510211031104110EE1CEC0E1FFCFC0D2
:1006AE00E2FF040EE66ECCC000F0CDC001F0D4DD4A
:1006BE00010E006E0FD0010E0101015F000E025BF4
:1006CE00035B045BDCD766BC02D0006A03D0668491
:0606DE00020E006E120086
:1006E40059C002F15AC003F15BC004F15CC005F1CA
:1006F4009E96C5869EB61FD059505A105B105C104A
:1007040019E0010102510311041105110CE1B5C0F6
:10071400E1FFB6C0E2FF030EE66EB3C000F0B4C062
:1007240001F09FDD08D0010E0101025F000E035BA2
:10073400045B055BDFD70101C9CF01F10051000A59
:1007440002E1C58A01D0C59A9E96C58859C002F1B6
:100754005AC003F15BC004F15CC005F19EB61FD022
:1007640059505A105B105C1019E001010251031139
:10077400041105110CE1B5C0E1FFB6C0E2FF030EA0
:10078400E66EB3C000F0B4C001F06BDD08D0010E1A
:100794000101025F000E035B045B055BDFD701C14F
:0407A40000F012004F
:1007A8008DC002F18EC003F18FC004F190C005F135
:1007B800A19A6686A1BA20D000018D518E118F11A1
:1007C800901119E0010102510311041105110CE106
:1007D800CEC0E1FFCFC0E2FF030EE66ECCC000F052
:1007E800CDC001F03CDD08D0010E0101025F000E12
:1007F800035B045B055BDED701016ACF01F10051A1
:10080800000A02E1668A01D0669AA19A66888DC0BC
:1008180002F18EC003F18FC004F190C005F1A1BAB6
:1008280020D000018D518E118F11901119E0010116
:1008380002510311041105110CE1CEC0E1FFCFC034
:10084800E2FF030EE66ECCC000F0CDC001F007DD7C
:1008580008D0010E0101025F000E035B045B055B1B
:08086800DED701C100F012000F
:1008700059C001F15AC002F15BC003F15CC004F140
:10088000C582C5A21FD059505A105B105C1019E0E8
:10089000010101510211031104110CE1B5C0E1FF86
:1008A000B6C0E2FF060EE66EB3C000F0B4C001F0C1
:1008B000DADC08D0010E0101015F000E025B035B70
:0608C000045BDFD712000B
:0408C6006684120032
:1008CA008DC001F18EC002F18FC003F190C004F116
:1008DA00668266A220D000018D518E118F1190116F
:1008EA0019E0010101510211031104110CE1CEC0FA
:1008FA00E1FFCFC0E2FF060EE66ECCC000F0CDC02D
:10090A0001F0ACDC08D0010E0101015F000E025BB0
:08091A00035B045BDED7120051
:0A092200000E82B8010E006E1200F4
:0A092C00000E82B8010E006E1200EA
:0A093600000E82B6010E006E1200E2
:0A094000000E82B6010E006E1200D8
:0A094A00000E82BA010E006E1200CA
:0A095400000E84B4010E006E1200C4
:0A095E00000E86B2010E006E1200BA
:0A096800000E82B6010E006E1200B0
:0A097200000E81B4010E006E1200A9
:10097C001DCF01F00F0122A302D02299228901C0C0
:04098C0000F0120065
:0A099000000E86B0010E006E12008A
:0A099A00000E86B4010E006E12007C
:0A09A400000EACB2010E006E12004E
:0C09AE00000E0F0121B3010E006E1200BC
:0A09BA00000EA4BA010E006E120038
:0A09C400000E9EBA010E006E120034
:1009CE00AECF01F0ABA202D0AB98AB8801C000F065
:0209DE00120005
:0A09E000000E82B8010E006E120036
:0409EA00C5841200AE
:1009EE008DC003F18EC004F18FC005F190C006F1E9
:1009FE000101016B026B0251120802E101518E08D6
:100A0E0008E310DC005201E004D00101014B022B7F
:100A1E00F2D70101120E025D02E18F0E015D03E3BA
:100A2E007B0E006E27D0668066A023D000018D510C
:100A3E008E118F1190111CE001010351041105114B
:100A4E0006110FE1CEC0E1FFCFC0E2FF050EE66E4C
:100A5E00CCC000F0CDC001F033EC01F0010E006E01
:100A6E0009D0010E0101035F000E045B055B065BFE
:060A7E00DBD7006A120044
:0A0A8400000E84B0010E006E120097
:0A0A8E00000E82BA010E006E120085
:0A0A9800000E82B2010E006E120083
:0A0AA200000E80B0010E006E12007D
:100AAC0059C003F15AC004F15BC005F15CC006F1FA
:100ABC000101016B026B0251120802E101518E0817
:100ACC0009E326EC01F0005201E004D00101014BD6
:100ADC00022BF1D70101120E025D02E18F0E015DB6
:100AEC0003E37B0E006E25D0C580C5A021D05950E4
:100AFC005A105B105C101BE0035104110511061118
:100B0C000FE1B5C0E1FFB6C0E2FF050EE66EB3C063
:100B1C0000F0B4C001F033EC01F0010E006E09D00E
:100B2C00010E0101035F000E045B055B065BDDD764
:040B3C00006A120039
:0A0B4000000E82B8010E006E1200D4
:0A0B4A00000E82B0010E006E1200D2
:100B5400086A096A100E0C6E01340836093604500E
:100B6400085E0550D8A0053C095ED8B007D00450F3
:100B740008260550D8B0053C0926D8900036013621
:060B84000C2EEAD712005E
:100B8A004C0E0001AB6F020EAC6F000EAD6F000E83
:100B9A00AE6FAC0EAF6F0A0EB06F000EB16F000EE3
:100BAA00B26F700EB76F080EB86F000EB96F000EF5
:100BBA00BA6FE40EBB6F060EBC6F000EBD6F010E5E
:100BCA00BE6F3E0EA76F030EA86F000EA96F010E2F
:100BDA00AA6FEA0E9B6F090E9C6F000E9D6F000EA6
:100BEA009E6F949894968B988B9694889486C79EB9
:080BFA00C79C380EC66E120004
:080C02000B6A0B86FF0E1200C5
:100C0A00A60E00019F6F010EA06F070EA16F010EC5
:100C1A00A26FCE0EC36F090EC46F000EC56F000E11
:100C2A00C66FC40EE06F090EE16F000EE26F000E90
:100C3A00E36FA40EE46F090EE56F000EE66F000E77
:100C4A00E76FAC8A900EAB6E948E949C9EAA03D0EA
:080C5A00AECF00F0FBD7120041
:100C6200960E00019F6F010EA06F070EA16F010E7D
:100C7200A26F7C0EC36F090EC46F000EC56F000E0B
:100C8200C66FBA0EE06F090EE16F000EE26F000E42
:100C9200E36FAE0EE46F090EE56F000EE66F000E15
:100CA200E76F0F01218B900E226F98849892A4AA6D
:0A0CB20003D01DCF00F0FBD71200A5
:100CBC000C6A0E6A0250D8A477EF06F001C002F05D
:100CCC0000C001F0006A0E860250D8A477EF06F03F
:100CDC0001C002F0016A0E960E880250D8B489EF5A
:100CEC0006F00E50035ED8A4D8A08FEF06F0D89073
:100CFC0002BE95EF06F0003601360236032E7EEF6B
:100D0C0006F08FEF06F0010E0C6E4BEC01F099EF34
:100D1C0006F0020E0C6E56EC01F099EF06F0040E84
:080D2C000C6E52EC01F0120004
:100D3400025006180E6E086A096A0B6A03500764AB
:100D44008DEF07F006500A6E068E028E03500B6E6E
:100D54000750036E000E0B64DDEF06F00B50075EC8
:100D6400D8B47EEF07F0070E07644CEF07F0075E78
:100D740000C008F001C000F002C001F0026A074E92
:100D84007EEF07F0076421EF07F0075E00C008F06C
:100D940001C000F0016A074E7EEF07F00764FFEF21
:100DA40006F0075E00C008F0006A074E7EEF07F009
:100DB4000764E6EF06F00AC002F005C001F004C0C3
:100DC40000F0086AAAEF08F0030E0764F1EF06F0DA
:100DD400075E08380F0B086E074E7EEF07F0D890B9
:100DE4000832074E7EEF07F0D8900832074E7EEFA8
:100DF40007F0D89008327EEF07F0030E076410EF77
:100E040007F0075E08380F0B086E0038F00B082651
:100E140000380F0B006E074E7EEF07F0D8900032BB
:100E24000832074E7EEF07F0D89000320832074EA2
:100E34007EEF07F0D890003208327EEF07F0030E01
:100E4400076438EF07F0075E08380F0B086E0038A8
:100E5400F00B082600380F0B006E0138F00B00264B
:100E640001380F0B016E074E7EEF07F0D890013268
:100E740000320832074E7EEF07F0D890013200327C
:100E84000832074E7EEF07F0D89001320032083264
:100E94007EEF07F0030E076469EF07F0075E08387A
:100EA4000F0B086E0038F00B082600380F0B006E8D
:100EB4000138F00B002601380F0B016E0238F00BDD
:100EC400012602380F0B026E074E7EEF07F0D89012
:100ED4000232013200320832074E7EEF07F0D8901A
:100EE4000232013200320832074E7EEF07F0D8900A
:100EF4000232013200320832096A000E0EAE72EF7D
:100F040008F0081E001E011E021E082A00220122EB
:100F1400022272EF08F00750D8A493EF07F0AAEF6B
:100F240008F0096A02C00AF0028E068E0750035CBC
:100F3400076ED8B465EF08F0070E076433EF08F0C6
:100F4400075E0450096E0550046E0650056E066A6D
:100F5400074E65EF08F0070E076408EF08F0075E18
:100F64000450096E0550046E056A074E65EF08F0DB
:100F7400070E0764E6EF07F0075E0450096E046A83
:100F8400074E65EF08F0070E0764CDEF07F00AC0BF
:100F940002F0AAEF08F0030E0764D8EF07F0075E2B
:100FA40009380F0B096E074E65EF08F0D890093227
:100FB400074E65EF08F0D8900932074E65EF08F048
:100FC400D890093265EF08F0030E0764F7EF07F0D5
:100FD400075E09380F0B096E0438F00B0926043834
:100FE4000F0B046E074E65EF08F0D89004320932F7
:100FF400074E65EF08F0D89004320932074E65EFCA
:1010040008F0D8900432093265EF08F0030E076443
:101014001FEF08F0075E09380F0B096E0438F00B58
:10102400092604380F0B046E0538F00B0426053826
:101034000F0B056E074E65EF08F0D89005320432A9
:101044000932074E65EF08F0D890053204320932B0
:10105400074E65EF08F0D89005320432093265EF87
:1010640008F0030E076450EF08F0075E09380F0B11
:10107400096E0438F00B092604380F0B046E05388A
:10108400F00B042605380F0B056E0638F00B052609
:1010940006380F0B066E074E65EF08F0D89006323F
:1010A400053204320932074E65EF08F0D890063253
:1010B400053204320932074E65EF08F0D890063243
:1010C400053204320932086A000E0EAE72EF08F0DF
:1010D400091E041E051E061E092A042205220622D4
:1010E400095008260450002205500122065002220D
:1010F4000EBE89EF08F0D8A098EF08F00232013252
:1011040000320832033E98EF08F0A4EF08F0D8B09C
:101114009EEF08F0000E081E001E011E021E082A83
:101124000022012202220A7E9EEF08F0010E0C6EBC
:101134001EEC02F0ACEF08F0020E0C6E1EEC02F096
:10114400ACEF08F0040E0C6E3FEC01F0ACEF08F0CD
:06115400000E0C6E1200FB
:10115A0021D0CF0EAF6EAC9453DD6BD0670EAF6E5D
:10116A00AC944EDD66D0CF0EAF6EAC8449DD61D053
:10117A00670EAF6EAC8444DD5CD0440EAF6EAC84B7
:10118A003FDD57D0220EAF6EAC843ADD52D0060E48
:10119A00006E58D00001000E006EF51908E10050EB
:1011AA00F41905E1120EF31902E1F251C00AD1E075
:1011BA00000E006EF51908E10050F41905E1250E3C
:1011CA00F31902E1F251800AC9E0000E006EF51926
:1011DA0008E10050F41905E14B0EF31902E1F2514E
:1011EA00000AC1E0000E006EF51908E10050F4197A
:1011FA0005E1960EF31902E1F251000AB9E0000E78
:10120A00006EF51908E10050F41905E1E10EF31931
:10121A0002E1F251000AB1E0F551000A08E1F45185
:10122A00010A05E1F351C20A02E1F251000AAAE0F9
:10123A00AED7A60EBF6F010EC06F070EC16F010EAB
:06124A00C26F006A1200F1
:101250000050086E0150006E016A026A036A0B6A50
:101260000C6A960E036E0A6A00C001F008C000F016
:08127000086A026A23DD120086
:1012780038D00F0120870D0E1F6F040E1E6F2185B9
:10128800ECDC7ED00F012087060E1F6F820E1E6FCA
:101298002185E3DC75D00F012087030E1F6F400EF8
:1012A8001E6F2185DADC6CD00F012087010E1F6FBD
:1012B800A00E1E6F2185D1DC63D00F012087010E9F
:1012C8001F6F150E1E6F2185C8DC5AD00F012087AD
:1012D8001F6B8A0E1E6F2185C0DC52D0060E006E71
:1012E80059D0000E006E0001F51908E10050F419FC
:1012F80005E1120EF31902E1F251C00ABAE0000E3C
:10130800006EF51908E10050F41905E1250EF319EE
:1013180002E1F251800AB6E0000E006EF51908E10C
:101328000050F41905E14B0EF31902E1F251000ADD
:10133800B2E0000E006EF51908E10050F41905E15D
:10134800960EF31902E1F251000AAEE0000E006EAB
:10135800F51908E10050F41905E1E10EF31902E16D
:10136800F251000AAAE0F551000A08E1F451010A15
:1013780005E1F351C20A02E1F251000AA7E0AED733
:101388000001960EBF6F010EC06F070EC16F010EF0
:06139800C26F006A1200A2
:02139E0012003B
:1013A000F2C0F6FFF3C0F7FFF4C0F8FF0900F5CF75
:1013B000C7F00900F5CFC8F00900F5CFC9F0090062
:1013C000F5CFCAF0040E0001F225F66E000EF321EF
:1013D000F76E000EF421F86E0900F5CFD0F0090089
:1013E000F5CFD1F00900F5CFD2F00900F5CFD3F059
:1013F000080EF225F66E000EF321F76E000EF421B2
:10140000F86E0900F5CFDCF00900F5CFDDF009003A
:10141000F5CFDEF00900F5CFDFF00C0EF225F66E09
:10142000000EF321F76E000EF421F86E0900F5CFDF
:10143000D8F00900F5CFD9F00900F5CFDAF00900AE
:10144000F5CFDBF0100EF225F66E000EF321F76EED
:10145000000EF421F86E0900F5CFD4F00900F5CFA5
:10146000D5F00900F5CFD6F00900F5CFD7F012007E
:10147000C1C0E1FFC2C0E2FFF2C0E9FFF3C0EAFF72
:10148000EECFE6FFBFC000F0C0C001F033EC01F0CA
:04149000006A1200DC
:10149400F2C0F5F0F3C0F6F0F4C0F7F00DD0A00EF2
:1014A400C86EC5EC05F045D0280EC86EC5EC05F035
:1014B40040D0040E006E3FD0F5C0F6FFF6C0F7FF33
:1014C400F7C0F8FF0900F5CF01F00900F5CF02F0ED
:1014D4000900F5CF03F00900F5CF04F00450000A29
:1014E40008E10350010A05E10250860A02E10150B5
:1014F400A00AD5E0F5C0F6FFF6C0F7FFF7C0F8FF85
:101504000900F5CF01F00900F5CF02F00900F5CF8D
:1015140003F00900F5CF04F00450000A08E1035079
:10152400060A05E102501A0A02E10150800ABCE0F1
:08153400C0D7000E006E12008A
:10153C000001FA6BFB6BF3C0F8F0F4C0F9F0F2C0E9
:10154C0000F000360090DAC0E1FFDBC0E2FF00C023
:10155C00E6FFD8C000F0D9C001F033EC01F0005028
:10156C000001FA13000EFB13F5C000F0F6C001F0F9
:10157C00010EF55F000EF65B0050011018E0DAC0AA
:10158C00E1FFDBC0E2FFF8C0E9FFF9C0EAFFEECFF4
:10159C00E6FFD8C000F0D9C001F033EC01F00050E8
:1015AC000001FA13000EFB13F84BF92BDDD7F751A2
:1015BC00000A06E1D0C000F0D1C001F033EC01F01C
:1015CC000001F751010A06E1DCC000F0DDC001F0BA
:0E15DC0033EC01F0FAC000F0FBC001F0120089
:1015EA00F2C0F5F0F3C0F6F0F4C0F7F00DD0A00E9B
:1015FA00C86EC5EC05F045D0280EC86EC5EC05F0DE
:10160A0040D0040E006E3FD0F5C0F6FFF6C0F7FFDB
:10161A00F7C0F8FF0900F5CF01F00900F5CF02F095
:10162A000900F5CF03F00900F5CF04F00450000AD1
:10163A0008E10350010A05E10250860A02E101505D
:10164A00A00AD5E0F5C0F6FFF6C0F7FFF7C0F8FF2D
:10165A000900F5CF01F00900F5CF02F00900F5CF36
:10166A0003F00900F5CF04F00450000A08E1035022
:10167A00060A05E102501A0A02E10150800ABCE09A
:08168A00C0D7000E006E120033
:10169200F2C0F5F0F3C0F6F0F4C0F7F00DD0A00EF2
:1016A200C86EC5EC05F045D0280EC86EC5EC05F035
:1016B20040D0040E006E3FD0F5C0F6FFF6C0F7FF33
:1016C200F7C0F8FF0900F5CF01F00900F5CF02F0ED
:1016D2000900F5CF03F00900F5CF04F00450000A29
:1016E20008E10350010A05E10250860A02E10150B5
:1016F200A00AD5E0F5C0F6FFF6C0F7FFF7C0F8FF85
:101702000900F5CF01F00900F5CF02F00900F5CF8D
:1017120003F00900F5CF04F00450000A08E1035079
:10172200060A05E102501A0A02E10150800ABCE0F1
:08173200C0D7000E006E12008A
:10173A0027D0CF0EAF6EAC9405EC06F070D0670ED2
:10174A00AF6EAC9405EC06F06AD0CF0EAF6EAC84E7
:10175A0005EC06F064D0670EAF6EAC8405EC06F0BB
:10176A005ED0440EAF6EAC8405EC06F058D0220E63
:10177A00AF6EAC8405EC06F052D0060E006E58D05F
:10178A000001000E006EF51908E10050F41905E198
:10179A00120EF31902E1F251C00ACBE0000E006EFC
:1017AA00F51908E10050F41905E1250EF31902E1D3
:1017BA00F251800AC4E0000E006EF51908E10050EB
:1017CA00F41905E14B0EF31902E1F251000ABDE0EA
:1017DA00000E006EF51908E10050F41905E1960EA5
:1017EA00F31902E1F251000AB6E0000E006EF51993
:1017FA0008E10050F41905E1E10EF31902E1F25192
:10180A00000AAFE0F551000A08E1F451010A05E1C6
:10181A00F351C20A02E1F251000AA9E0AED7A60EBC
:10182A00BF6F010EC06F070EC16F010EC26F006A53
:02183A0012009A
:10183C000001FA6BFB6BF3C0F8F0F4C0F9F0F2C0E6
:10184C0000F0003600900080DAC0E1FFDBC0E2FF60
:10185C0000C0E6FFD8C000F0D9C001F033EC01F0B5
:10186C0000500001FA13000EFB13010EF55F000E81
:10187C00F65BF551F61116E0D6C0E1FFD7C0E2FFDA
:10188C00010EE66ED4C000F0D5C001F033EC01F0CF
:10189C00F8C0E1FFF9C0E2FF00C0E6FF0001F84B21
:1018AC00F92BE3D7D6C0E1FFD7C0E2FFE66AD4C07C
:1018BC0000F0D5C001F033EC01F0F8C0E1FFF9C045
:1018CC00E2FF00C0E6FF0001F751000A06E1D0C0BC
:1018DC0000F0D1C001F033EC01F00001F751010A26
:1018EC0006E1DCC000F0DDC001F033EC01F0FAC021
:0818FC0000F0FBC001F0120036
:1019040027D0CF0EAF6EAC9405EC06F070D0670E06
:10191400AF6EAC9405EC06F06AD0CF0EAF6EAC841B
:1019240005EC06F064D0670EAF6EAC8405EC06F0EF
:101934005ED0440EAF6EAC8405EC06F058D0220E97
:10194400AF6EAC8405EC06F052D0060E006E58D093
:101954000001000E006EF51908E10050F41905E1CC
:10196400120EF31902E1F251C00ACBE0000E006E30
:10197400F51908E10050F41905E1250EF31902E107
:10198400F251800AC4E0000E006EF51908E100501F
:10199400F41905E14B0EF31902E1F251000ABDE01E
:1019A400000E006EF51908E10050F41905E1960ED9
:1019B400F31902E1F251000AB6E0000E006EF519C7
:1019C40008E10050F41905E1E10EF31902E1F251C6
:1019D400000AAFE0F551000A08E1F451010A05E1FB
:1019E400F351C20A02E1F251000AA9E0AED7A60EF1
:1019F400BF6F010EC06F070EC16F010EC26F006A88
:021A04001200CE
:081A0600067E9AEC06F01200C6
:101A0E00090E0B6E1E0E0C6EE40E0D6E0D2EFED715
:0C1A1E000C2EFCD70B2EFAD70000120093
:101A2A000450000A12E10550000A0FE10650000AAC
:101A3A000CE10750000A09E1FF0E006EFF0E016E6D
:101A4A007F0E026EFF0E036EA8D0086A096A07505D
:101A5A00D8B4C0EF0DF00350D8B4C5EF0DF0025062
:101A6A0006180A6E028E068E0E6A02C008F001C0BF
:101A7A000CF000C00DF004500D5E0550D8A0053CD6
:101A8A000C5E0650D8A0063C085E086A0C6A0D6A0D
:101A9A00D8A057EF0DF0D890023201320032083246
:101AAA00010E0E6E0750035ED8A064EF0DF07E0E95
:101ABA000E240326D8B0CAEF0DF06AEF0DF07E0EA1
:101ACA000E240326D8A0CFEF0DF0180E0B6E0D369C
:101ADA000C3608360036013602360E360450005EE1
:101AEA000550D8A0053C015E0650D8A0063C025E0F
:101AFA0006340E120EA085EF0DF00D8090EF0DF05A
:101B0A00045000260550D8B0053C01260650D8B02E
:101B1A00062802260D900B2E6CEF0DF0B6EF0DF095
:101B2A00D8900036013602360E360450005E055053
:101B3A00D8A0053C015E0650D8A0063C025E0634D9
:101B4A000E10010B0D26D8B00C2AD8B4082AD8A436
:101B5A00B6EF0DF008320C320D32032AD8B4CAEFB0
:101B6A000DF00AAE089E0850026E0C50016E0D5020
:101B7A00006ED2EF0DF0010E01EC06F0D2EF0DF07F
:101B8A00020E4BEC01F0D2EF0DF0040E3FEC01F027
:0C1B9A00D2EF0DF0080E56EC01F0120026
:101BA600086A096A000E0762036458EF0EF00250D5
:101BB60006180A6E075003267E0ED8A0E9EF0DF030
:101BC600035ED8B05DEF0EF0EDEF0DF0035ED8A02A
:101BD60062EF0EF0028E068E02C00EF001C00BF010
:101BE60000C00DF000500402F4CF0CF001500502C5
:101BF600F4CF00F0F3CF08F00402F3500C26F450B3
:101C06000822000E00220D500502F3500C26F45057
:101C16000822000E002202500402F3500826F45057
:101C2600002202500502016A000E0122F35000262E
:101C3600F45001220D500602F3500826F4500022FB
:101C4600026A000E012202220B500602F350002601
:101C5600F4500122000E02220E500602F350012615
:101C6600F450022202BE40EF0EF00836003601366E
:101C760002360306D8B462EF0EF053EF0EF0D880AA
:101C8600800E08640030000E002201220222D8A035
:101C960053EF0EF0023201320032034A5DEF0EF0CE
:101CA6000AAE029E000E65EF0EF0010E4BEC01F03F
:101CB60065EF0EF0020E3FEC01F065EF0EF0040E3C
:061CC60056EC01F01200D3
:101CCC000B800BAE72EF0EF0026A0AAEFF0E026EC4
:0C1CDC00016E006E0A360232FF0E12008C
:101CE8000001F66B050EF65D0AE2F651F425E16E89
:101CF800000EF521E26E200EE66EF62BF3D7F651B4
:101D0800F425E16E000EF521E26EE66AF607F6515B
:101D1800F425F76F000EF521F86F0A0E046E000E19
:101D2800056EF2C000F0F3C001F0AAEC05F008C09F
:101D380000F009C001F0300E0026F7C0E1FFF8C03E
:101D4800E2FF00C0E6FF0A0E046E000E056EF2C048
:101D580000F0F3C001F0AAEC05F000C0F2F001C0F9
:101D6800F3F0000E011802E1000E001801E102D0A4
:061D7800F607CDD71200B2
:101D7E000001F26BF36BC7C000F0C8C001F033EC8A
:101D8E0001F000C0F2F0000E0001F36FF2C000F09F
:061D9E00F3C001F0120089
:101DA400380E0001E86FE9DFCBC0F2F0E80EF36F04
:101DB400000EF46F010EF56F000EF66F010EF76F53
:101DC4009EEC0AF0CBC0F2F0E90E0001F36F000EB6
:101DD400F46F040EF56F000EF66FF76B2DDDE9C09E
:101DE400EDF0000E0001EE6FEDC001F0006A00C0DE
:101DF400EDF001C0EEF0EA510012000E011200C035
:101E0400EDF001C0EEF028EC09F0000E046EC00EF7
:101E1400056E4C0E066E890E076EF3DDA20E046E7F
:101E24009A0E056E210E066E7D0E076EBADE120046
:101E34002DD0E9C0F2F0EAC0F3F0EBC0F4F0ECC04E
:101E4400F5F05EDD31D0E9C0F2F0EAC0F3F0EBC0AA
:101E5400F4F0ECC0F5F06FDC27D0E9C0F2F0EAC092
:101E6400F3F0EBC0F4F0ECC0F5F03CEC09F01CD05E
:101E7400E9C0F2F0EAC0F3F0EBC0F4F0ECC0F5F026
:101E8400ADEC08F011D0010E006E0ED00001E85147
:101E9400000ACFE0E851010AD6E0E851020ADDE089
:0A1EA400E851100AE5E0EFD7120044
:101EAE001ED0E9C0F2F0EAC0F3F0EBC0F4F0F5ECAE
:101EBE000AF020D0E9C0F2F0EAC0F3F0EBC0F4F083
:101ECE004AEC0AF017D0E9C0F2F0EAC0F3F0EBC02A
:101EDE00F4F049EC0BF00ED0010E006E0BD00001A9
:101EEE00E851000ADEE0E851010AE4E0E851020A96
:061EFE00EAE0F2D7120039
:101F0400D00E0C6EC90E0D6E0D2EFED70C2EFCD706
:061F1400000000001200B5
:101F1A000B6A0350D8B4D3EF0FF002500A6E028E48
:101F2A008E0E035E03AED7EF0FF0036C080E035C50
:101F3A00D8A0B2EF0FF0036E013602C001F0026AB8
:101F4A00080E035CD8A0B2EF0FF0036E0136016AE7
:101F5A000350D8A4D890BCEF0FF00350D8B4BCEF0C
:101F6A000FF0D89002320132032EB6EF0FF00BBCFD
:101F7A0001A0C9EF0FF0D8A0C9EF0FF0012AD8B419
:101F8A00022A02BEE6EF0FF00AAEEBEF0FF0021ED6
:101F9A00011E012AD8B4022AEBEF0FF0026A016A85
:101FAA00EBEF0FF00B800BAEEFEF0FF0026A0AAE09
:101FBA00EFEF0FF0FF0E026E016E0A360232EFEFFC
:101FCA000FF0010E0C6E7DDEF1EF0FF0000E0C6EBD
:101FDA00F1EF0FF0FF0E0C6E0150006E0250016E11
:021FEA001200E3
:101FEC000001EE6BEF6BE8C0F0F0E9C0F1F0800E91
:101FFC00E919006E800E005C02E1000EE85D0BE258
:10200C00010EEE6F000EEF6FE8510008F06FE9C0A3
:10201C00F1F0000EF157F0C0F2F0F1C0F3F0EAC0AD
:10202C00F4F0EBC0F5F05ADE060EEC6F000EED6F1F
:10203C00000E006EED51005C02E1EC51000819E25B
:10204C00EC51EA25E16EED51EB21E26E010EEC5DF7
:10205C00006E000EED59016E0050EA25E96E01503C
:10206C00EB21EA6EEECFE6FF010EEC5F000EED5BAE
:10207C00DFD7EAC0E1FFEBC0E2FF200EE66EEE51C7
:10208C00EF111AE0EC6BED6BEC51EA25E96EED51BA
:10209C00EB21EA6EEE50200A03E1EC4BED2BF4D76A
:1020AC00010EEC5F000EED5BEC51EA25E16EED519B
:0A20BC00EB21E26E2D0EE66E12001D
:1020C600520E0B6E2B0E0C6E000E0D6E0D2EFED7E5
:0C20D6000C2EFCD70B2EFAD700001200D5
:1020E200EEC0CBF0EBC0F2F0ECC0F3F0EDC0F4F0D8
:1020F200D0EC09F0E8C0F2F0E9C0F3F0EAC0F4F085
:06210200CFEC09F0120011
:10210800E8C0EBF0E9C0ECF00D0E0001ED6F0A0E2F
:10211800EE6F3AD0EBC0F2F0ECC0F3F038EC0AF016
:102128003ED0EBC0E9FFECC0EAFFEE520AE0EBC09C
:10213800F2F0ECC0F3F038EC0AF00001EB4BEC2BBA
:10214800F0D72DD0EBC0E9FFECC0EAFFEE520AE071
:10215800EBC0F2F0ECC0F3F038EC0AF00001EB4B06
:10216800EC2BF0D70001ED0EF26F000EF36F38EC98
:102178000AF0EE0E0001F26F000EF36F38EC0AF071
:102188000ED0060E006E0CD00001EA51000AC2E023
:10219800EA51010AC6E0EA51020AD4E0F2D7006A1D
:0221A800120023
:1021AA000001ED6BEE6B380EE86FE4DDCBC0F2F0A8
:1021BA00E80EF36F000EF46F010EF56F000EF66F66
:1021CA00010EF76F9EEC0AF01DDCCBC0F2F0E90EAF
:1021DA000001F36F000EF46F040EF56F000EF66F38
:1021EA00F76B1EEC0CF00EDCEBC0EDF0000E0001FC
:1021FA00EE6FEDC001F0006A00C0EDF001C0EEF034
:10220A00EC510010036E01C004F0000E041203C06A
:10221A00EDF004C0EEF0050E026E03C000F004C03B
:10222A0001F0025005E001320032019EFF0FFAD799
:10223A0000C0EDF001C0EEF0E00E0016030E01162C
:10224A0000C0EDF001C0EEF028EC09F0000E046EBB
:10225A00000E056E480E066E860E076E9FDC000E97
:10226A00046EE00E056E7F0E066E890E076E15EC83
:10227A000DF0000E046E000E056E480E066E840EFA
:08228A00076E03EC0DF01200D9
:102292000001E86BF60EE96F240EEA6F000EEB6F99
:1022A20005DE010E0001E86F800EE96F250EEA6F70
:0E22B200000EEB6FEC6FBDDD07EC0DF01200BF
:1022C0000900F5CFE6FF0006FBE10106F9E1120087
:1022D00069DD00C0A3F001C0A4F002C0A5F003C0F6
:1022E000A6F010DE2F0EE86F000EE96F010EEA6F08
:1022F0000BDFA3C000F0A4C001F0A5C002F0A6C08F
:1023000003F00BDE00C0E8F001C0E9F0910E00011F
:10231000EA6F000EEB6F6ADE910EE86F000EE96F58
:10232000010EEA6FF1DE150E0001E86F000EE96F95
:10233000020EEA6FE9DE39DF00C0A3F001C0A4F0AD
:1023400002C0A5F003C0A6F0DDDD200E0001E86F9D
:10235000000EE96F010EEA6FD7DEA3C000F0A4C043
:1023600001F0A5C002F0A6C003F0D7DD00C0E8F080
:1023700001C0E9F0910E0001EA6F000EEB6F36DE4E
:10238000910EE86F000EE96F010EEA6FBDDE1B0EC5
:102390000001E86F000EE96F020EEA6FB5DE3E0E37
:1023A0000001E86F000EE96F020EEA6FADDE8BDE12
:0423B0008ADE1200AF
:1023B400820E0001E86F240EE96F000EEA6FE20E50
:1023C400EB6F240EEC6F000EED6F380EEE6F87DEB0
:1023D400780EE86F000EE96F020EEA6F93DE5D0E71
:1023E4000001E86F000EE96F020EEA6F8BDE07EC66
:0423F4000DF01200D6
:0E23F8007DEC12F04ADFDADF67DFFED7FFD799
:1024FA0010EE15F07C0E006E010E016E060EF66EE1
:0E250A00240EF76E000EF86E60EC11F0120059
:06240600206D626172000E
:05240C0020C2B04300F6
:0F2411002054656D70657261747572653A2000B4
:0F2420002050726573737572653A20202020007A
:10242F002D2D2D2D2D2D2D2D2D2D2D2D2D2D2D2DCD
:0B243F002D2D2D2D2D2D2D2D2D2D00D0
:04244A00000000008E
:10244E002D2D2D2D2D2D2D2D2D2D2D2D2D2D2D2DAE
:0B245E002D2D2D2D2D2D2D2D2D2D00B1
:10246900202020202020496E697469616C697A6195
:0524790074696F6E00A4
:04247E00000000005A
:10248200B4010701D0010701C20107015E01070182
:10249200500107016C010701880107017A01070158
:1024A20024020701EC010701DE010701080207010E
:1024B200A20A00004A0B0000840A00004009000042
:1024C200400B00008E0A0000980A00000203000080
:1024D200000400002A030000340300000A04000084
:1024E200AC0A0000EA090000700800003E03000187
:0424F200E4060001FB
:0424F600A0860100BB
:020000040030CA
:0E00000015137F7CF98B91FFFFC0FFE0FF40DE
:00000001FF
